:020000040000FA
:100000000C9461000C9477030C9450030C947E00C4
:100010000C947E000C947E000C947E000C947E0068
:100020000C947E000C947E000C947E000C947E0058
:100030000C947E000C947E000C947E000C947E0048
:100040000C9406030C947E000C947E000C947E00AD
:100050000C947E000C947E000C947E000C947E0028
:100060000C947E000C947E00000000002400270009
:100070002A0000000000250028002B0000000000DE
:1000800023002600290004040404040404040202DA
:100090000202020203030303030301020408102007
:1000A0004080010204081020010204081020000012
:1000B0000008000201000003040700000000000027
:1000C000000011241FBECFEFD8E0DEBFCDBF11E08E
:1000D000A0E0B1E0E6E1FAE002C005900D92A630A2
:1000E000B107D9F721E0A6E0B1E001C01D92A93126
:1000F000B207E1F70E949E030C9409050C940000DE
:10010000833081F028F4813099F08230A9F008958D
:100110008730A9F08830C9F08430B1F48091800034
:100120008F7D03C0809180008F7780938000089539
:1001300084B58F7784BD089584B58F7DFBCF809182
:10014000B0008F778093B00008958091B0008F7DCC
:10015000F9CFCF93DF93282F30E0F901E255FF4F1D
:100160008491F901E656FF4FD491F901EA57FF4F08
:10017000C491CC23A1F081110E948000EC2FF0E00B
:10018000EE0FFF1FE458FF4FA591B491EC91ED23C2
:1001900081E090E009F480E0DF91CF91089580E064
:1001A00090E0FACF1F93CF93DF93282F30E0F9012F
:1001B000E255FF4F8491F901E656FF4FD491F901C2
:1001C000EA57FF4FC491CC23A9F0162F81110E944A
:1001D0008000EC2FF0E0EE0FFF1FEE58FF4FA591CF
:1001E000B4918FB7F894EC91111108C0D095DE232B
:1001F000DC938FBFDF91CF911F910895DE2BF8CF55
:10020000CF93DF9390E0FC01E656FF4F24918A578D
:100210009F4FFC0184918823D1F090E0880F991FB3
:10022000FC01E859FF4FA591B491FC01EE58FF4F36
:10023000C591D491623071F49FB7F8943C91822FAC
:10024000809583238C93E8812E2B28839FBFDF9199
:10025000CF9108958FB7F894EC912E2B2C938FBFEC
:10026000F6CF3FB7F89480910F0190911001A091C3
:100270001101B091120126B5A89B05C02F3F19F0BE
:100280000196A11DB11D3FBFBA2FA92F982F882716
:10029000BC01CD01620F711D811D911D42E0660FF1
:1002A000771F881F991F4A95D1F708958F929F92C3
:1002B000AF92BF92CF92DF92EF92FF924B015C011F
:1002C0000E9431016B017C010E9431016C197D0992
:1002D0008E099F09683E734081059105A8F321E0CE
:1002E000821A9108A108B10888EEC80E83E0D81ED2
:1002F000E11CF11C81149104A104B10429F7FF90C1
:10030000EF90DF90CF90BF90AF909F908F90089527
:100310002FB7F89460910B0170910C0180910D0141
:1003200090910E012FBF08950895CF92DF92EF9222
:10033000FF920E948801C0901301D0901401E090B8
:100340001501F090160128EE33E040E050E00E94E5
:10035000E7042C193D094E095F0926303105410596
:10036000510580F460E084E00E94D20060E085E006
:100370000E94D20061E086E0FF90EF90DF90CF9086
:100380000C94D2008091130190911401A091150159
:10039000B09116010596A11DB11D80931301909394
:1003A0001401A0931501B093160185E090E090939D
:1003B000050180930401FF90EF90DF90CF900895A6
:1003C0008F929F92AF92BF92CF92DF92EF92FF9265
:1003D0000E9488018090130190901401A090150153
:1003E000B090160128EEC22E23E0D22EE12CF12C83
:1003F000A70196010E94E704281939094A095B09F7
:100400002630310541055105A0F461E084E00E94E9
:10041000D20060E085E00E94D20060E086E0FF90BC
:10042000EF90DF90CF90BF90AF909F908F900C9403
:10043000D2008091130190911401A0911501B09107
:1004400016010596A11DB11D80931301909314010F
:10045000A0931501B093160182E090E090930501FE
:10046000809304010E948801A70196010E94E7047D
:1004700020931301309314014093150150931601FA
:10048000FF90EF90DF90CF90BF90AF909F908F90B4
:1004900008950F931F930E94880100910601109107
:1004A00007012091080130910901601B710B820B3B
:1004B000930B6436710581059105C8F083E00E94B5
:1004C000A900892BA1F00E94880160930601709316
:1004D0000701809308019093090180910401909194
:1004E00005018330910511F12CF4029741F01F9121
:1004F0000F9108958430910599F10597C1F783E034
:1005000090E090930501809304010E94880128EEF9
:1005100033E040E050E00E94E70420931301309361
:1005200014014093150150931601E1CF81E08093AF
:1005300018010E94880128EE33E040E050E00E945C
:10054000E704209313013093140140931501509355
:10055000160181E090E09093050180930401C7CFDC
:1005600081E08093170185E090E0F5CF0F931F9312
:100570000E94880100910601109107012091080155
:1005800030910901601B710B820B930B643671056E
:1005900081059105E0F082E00E94A900892BB9F065
:1005A0000E948801609306017093070180930801FF
:1005B000909309018091040190910501813091058A
:1005C00049F482E090E090930501809304011F912B
:1005D0000F9108950397D9F784E090E09093050177
:1005E000809304010E94880128EE33E040E050E04F
:1005F0000E94E704209313013093140140931501E6
:100600005093160181E080931801E1CF1F920F9261
:100610000FB60F9211242F933F938F939F93AF9315
:10062000BF9380910B0190910C01A0910D01B091AD
:100630000E0130910A0123E0230F2D3758F5019662
:10064000A11DB11D20930A0180930B0190930C0111
:10065000A0930D01B0930E0180910F0190911001B4
:10066000A0911101B09112010196A11DB11D8093BD
:100670000F0190931001A0931101B0931201BF914B
:10068000AF919F918F913F912F910F900FBE0F903F
:100690001F90189526E8230F0296A11DB11DD2CFF9
:1006A0001F920F920FB60F9211242F933F934F93E7
:1006B0005F936F937F938F939F93AF93BF93EF93CA
:1006C000FF93E0910201F09103010995FF91EF91F1
:1006D000BF91AF919F918F917F916F915F914F915A
:1006E0003F912F910F900FBE0F901F9018951F9262
:1006F0000F920FB60F9211242F933F934F935F9356
:100700006F937F938F939F93AF93BF93EF93FF93D9
:10071000E0910001F09101010995FF91EF91BF91E6
:10072000AF919F918F917F916F915F914F913F9189
:100730002F910F900FBE0F901F901895789484B54D
:10074000826084BD84B5816084BD85B5826085BDCD
:1007500085B5816085BD80916E00816080936E005B
:10076000109281008091810082608093810080914D
:1007700081008160809381008091800081608093FE
:1007800080008091B10084608093B1008091B000BE
:1007900081608093B00080917A00846080937A00B9
:1007A00080917A00826080937A0080917A008160E3
:1007B00080937A0080917A00806880937A0010920A
:1007C000C10062E082E00E94000162E083E00E94DA
:1007D000000186EB92E090930101809300018091EB
:1007E00069008C7F816080936900E89A89E492E0D7
:1007F000909303018093020180916900837F84605C
:1008000080936900E99A61E084E00E94000161E060
:1008100085E00E94000161E086E00E94000161E045
:100820008DE00E94000188EE882E83E0982EA12C96
:10083000B12C90E0692E90E0792E24E0E22EF12C8C
:10084000CC24C394D12C03E010E08091040190915A
:1008500005018330910509F47BC064F48130910572
:10086000B9F1029709F445C06114710471F30E9453
:100870000000EBCF8430910509F493C00597A1F7F0
:1008800060E086E00E94D200C3E0D0E060E086E055
:100890000E94D20068EE73E080E090E00E94560172
:1008A00061E086E00E94D20068EE73E080E090E0B4
:1008B0000E945601219751F780911701882309F46E
:1008C00081C010930501009304011092170131C0FB
:1008D00080911801882351F01092180164EF71E0A3
:1008E00080E090E00E9456010E94E0010E94E00139
:1008F000BBCF60E084E00E94D200C3E0D0E060E0C3
:1009000084E00E94D20068EE73E080E090E00E94F4
:10091000560161E084E00E94D20068EE73E080E05E
:1009200090E00E945601219751F710930501009322
:1009300004010E948801A50194010E94E70420930C
:1009400013013093140140931501509316018CCF7D
:100950000E948801209013013090140140901501ED
:1009600050901601A50194010E94E7042219330951
:1009700044095509243031054105510568F460E00A
:1009800084E00E94D20061E085E00E94D20060E035
:1009900086E00E94D20068CFF0920501E092040147
:1009A000C8CF80911801882351F01092180164EF8C
:1009B00071E080E090E00E9456010E9495010E9443
:1009C000950152CFD0920501C0920401B2CFA1E2AD
:1009D0001A2EAA1BBB1BFD010DC0AA1FBB1FEE1FB9
:1009E000FF1FA217B307E407F50720F0A21BB30B04
:1009F000E40BF50B661F771F881F991F1A9469F780
:100A000060957095809590959B01AC01BD01CF01DB
:0C0A10000895F894FFCF940194010100B8
:107800000C94343C0C94513C0C94513C0C94513CE1
:107810000C94513C0C94513C0C94513C0C94513CB4
:107820000C94513C0C94513C0C94513C0C94513CA4
:107830000C94513C0C94513C0C94513C0C94513C94
:107840000C94513C0C94513C0C94513C0C94513C84
:107850000C94513C0C94513C0C94513C0C94513C74
:107860000C94513C0C94513C11241FBECFEFD8E036
:10787000DEBFCDBF11E0A0E0B1E0ECE9FFE702C060
:1078800005900D92A230B107D9F712E0A2E0B1E065
:1078900001C01D92AD30B107E1F70E942D3D0C945F
:1078A000CC3F0C94003C982F959595959595959582
:1078B000905D8F708A307CF0282F295A8091C0000B
:1078C00085FFFCCF9093C6008091C00085FFFCCF60
:1078D0002093C6000895282F205DF0CF982F809127
:1078E000C00085FFFCCF9093C6000895EF92FF92F1
:1078F0000F931F93EE24FF2487018091C00087FD22
:1079000017C00894E11CF11C011D111D81E4E8164B
:1079100082E4F8068FE0080780E0180770F3E09132
:107920000401F091050109958091C00087FFE9CF1E
:107930008091C6001F910F91FF90EF9008950E94D3
:10794000763C982F8091C00085FFFCCF9093C600B5
:1079500091362CF490330CF09053892F089597555D
:10796000892F08951F930E949F3C182F0E949F3CCF
:107970001295107F810F1F9108951F93182F882350
:1079800021F00E94763C1150E1F71F9108951F935A
:10799000182F0E94763C803249F0809103018F5F5E
:1079A000809303018530C1F01F9108958091C0003C
:1079B00085FFFCCF84E18093C6008091C00085FFE5
:1079C000FCCF1093C6008091C00085FFFCCF80E102
:1079D0008093C6001F910895E0910401F091050184
:1079E00009951F9108950E94763C803241F0809164
:1079F00003018F5F80930301853081F008958091AA
:107A0000C00085FFFCCF84E18093C6008091C00058
:107A100085FFFCCF80E18093C6000895E0910401CA
:107A2000F09105010995089540E951E08823A1F0FE
:107A30002D9A28EE33E0FA013197F1F721503040CA
:107A4000D1F72D9828EE33E0FA013197F1F7215064
:107A50003040D1F7815061F708953F924F925F9285
:107A60006F927F928F929F92AF92BF92CF92DF924E
:107A7000EF92FF920F931F93CF93DF93000080E16B
:107A80008093C4001092C50088E18093C10086E015
:107A90008093C2005098589A259A81E00E94143D24
:107AA00024E1F22E9EE1E92E85E9D82E0FE0C02ECA
:107AB00010E1B12EAA24A394B1E49B2EA6E58A2E50
:107AC000F2E57F2EE0E26E2E79E4572E63E5462E36
:107AD00050E5352E0E94763C8033B1F18133B9F107
:107AE000803409F46FC0813409F476C0823409F41B
:107AF00085C0853409F488C0803531F1823521F1A3
:107B0000813511F1853509F485C0863509F48DC0BC
:107B1000843609F496C0843709F403C1853709F423
:107B200072C1863709F466C0809103018F5F80932C
:107B30000301853079F6E0910401F0910501099582
:107B40000E94763C803351F60E94F33CC3CF0E94E2
:107B5000763C803249F78091C00085FFFCCFF092DF
:107B6000C6008091C00085FFFCCF9092C600809136
:107B7000C00085FFFCCF8092C6008091C00085FFC9
:107B8000FCCF7092C6008091C00085FFFCCF609250
:107B9000C6008091C00085FFFCCF5092C600809146
:107BA000C00085FFFCCF4092C6008091C00085FFD9
:107BB000FCCF3092C6008091C00085FFFCCFB09210
:107BC000C60088CF0E94763C863808F4BDCF0E945C
:107BD000763C0E94F33C7ECF0E94763C803809F4CC
:107BE0009CC0813809F40BC1823809F43CC1883942
:107BF00009F48FC080E00E94C73C6CCF84E10E94F2
:107C0000BD3C0E94F33C66CF85E00E94BD3C0E94D3
:107C1000F33C60CF0E94763C809306010E94763C44
:107C2000809307010E94F33C55CF0E94763C80333D
:107C300009F41DC183E00E94BD3C80E00E94C73C66
:107C400049CF0E94763C809309020E94763C809343
:107C5000080280910C028E7F80930C020E94763C79
:107C6000853409F415C18091080290910902892B8D
:107C700089F000E010E00E94763CF801E85FFE4FDA
:107C800080830F5F1F4F80910802909109020817AF
:107C9000190788F30E94763C803209F045CF809125
:107CA0000C0280FF01C16091060170910701660F0F
:107CB000771F7093070160930601A0910802B091AD
:107CC00009021097C9F0E8E0F1E09B01AD014E0F09
:107CD0005F1FF999FECF32BD21BD819180BDFA9A17
:107CE000F99A2F5F3F4FE417F50799F76A0F7B1F4B
:107CF00070930701609306018091C00085FFFCCF5F
:107D0000F092C6008091C00085FFFCCFB092C60003
:107D1000E1CE83E00E94C73CDDCE82E00E94C73CFA
:107D2000D9CE0E94763C809309020E94763C8093D3
:107D300008028091060190910701880F991F909386
:107D40000701809306010E94763C853409F4A6C0A1
:107D500080910C028E7F80930C020E94763C8032D0
:107D600009F0B8CE8091C00085FFFCCFF092C6002C
:107D7000609108027091090261157105B9F140E046
:107D800050E080910C02A82FA170B82FB27011C0E2
:107D9000BB2309F45CC0E0910601F0910701319624
:107DA000F0930701E09306014F5F5F4F46175707B7
:107DB000E8F4AA2369F3F999FECF209106013091E6
:107DC000070132BD21BDF89A90B58091C00085FFB2
:107DD000FCCF9093C6002F5F3F4F30930701209355
:107DE00006014F5F5F4F4617570718F38091C00099
:107DF00085FDE5CE8091C00085FFF8CFE0CE81E023
:107E00000E94C73C67CE0E94763C803209F08CCE3F
:107E10008091C00085FFFCCFF092C6008091C00029
:107E200085FFFCCFE092C6008091C00085FFFCCFAB
:107E3000D092C6008091C00085FFFCCFC092C600E2
:107E40008091C00085FFFCCFB092C60043CEE09188
:107E50000601F091070194918091C00085FFFCCF4D
:107E60009093C6009CCF80E10E94C73C33CE0E9415
:107E7000763C0E94763C182F0E94763C112309F430
:107E800083C0113009F484C08FE00E94C73C22CE29
:107E900080910C02816080930C02E5CE80910C02EF
:107EA000816080930C0259CF809107018823880F4D
:107EB000880B8A2180930B02809106019091070123
:107EC000880F991F90930701809306018091080203
:107ED00080FF09C080910802909109020196909359
:107EE000090280930802F894F999FECF1127E091D6
:107EF0000601F0910701C8E0D1E08091080290915D
:107F00000902103091F40091570001700130D9F34B
:107F100003E000935700E89500915700017001308D
:107F2000D9F301E100935700E89509901990009169
:107F3000570001700130D9F301E000935700E89534
:107F40001395103498F011270091570001700130FB
:107F5000D9F305E000935700E895009157000170B0
:107F60000130D9F301E100935700E895329602976A
:107F700009F0C7CF103011F00296E5CF112480919F
:107F8000C00085FFB9CEBCCE8EE10E94C73CA2CD19
:0E7F900085E90E94C73C9ECDF894FFCF80008B
:00000001FF
